:020000040800F2
:1000000000500020611E0008A11D0008A71D000867
:10001000AD1D0008B31D0008B91D00080000000058
:10002000000000000000000000000000BF1D0008EC
:10003000CB1D000800000000D71D0008E31D0008CC
:10004000A91E0008A91E0008A91E0008A91E000874
:10005000A91E0008A91E0008A91E0008A91E000864
:10006000A91E0008A91E0008A91E0008F11D00080D
:10007000A91E0008A91E0008A91E0008A91E000844
:10008000A91E0008A91E0008A91E0008A91E000834
:10009000A91E0008A91E0008A91E0008A91E000824
:1000A000A91E0008051E0008A91E0008A91E0008B8
:1000B000A91E0008191E00082D1E0008A91E000810
:1000C000A91E0008A91E0008A91E0008A91E0008F4
:1000D000A91E0008411E0008A91E0008A91E00084C
:1000E000A91E0008A91E0008A91E000800000000A3
:1000F0000000000000000000000000000000000000
:0C01000000000000000000005FF808F1A3
:10010C0010B5054C237833B9044B13B10448AFF345
:10011C0000800123237010BD40000020000000006F
:10012C00C05C000808B5034B1BB103490348AFF38F
:10013C00008008BD0000000044000020C05C0008E6
:10014C0080F0004002E000BF81F0004142001FBF80
:10015C005FEA410392EA030F7FEA226C7FEA236C89
:10016C006AD04FEA1262D2EB1363C1BFD21841407E
:10017C0048404140B8BF5B42192B88BF704710F014
:10018C00004F40F4000020F07F4018BF404211F0B7
:10019C00004F41F4000121F07F4118BF494292EA1F
:1001AC00030F3FD0A2F1010241FA03FC10EB0C004B
:1001BC00C3F1200301FA03F100F0004302D54942D8
:1001CC0060EB4000B0F5000F13D3B0F1807F06D385
:1001DC0040084FEA310102F10102FE2A51D2B1F17D
:1001EC00004F40EBC25008BF20F0010040EA030072
:1001FC007047490040EB0000013A28BFB0F5000FF2
:10020C00EDD2B0FA80FCACF1080CB2EB0C0200FAA7
:10021C000CF0AABF00EBC25052421843BCBFD040F6
:10022C001843704792F0000F81F4000106BF80F470
:10023C0000000132013BB5E74FEA41037FEA226C33
:10024C0018BF7FEA236C21D092EA030F04D092F0FE
:10025C00000F08BF0846704790EA010F1CBF002032
:10026C00704712F07F4F04D1400028BF40F000408F
:10027C00704712F100723CBF00F50000704700F0AF
:10028C00004343F0FE4040F4000070477FEA2262D6
:10029C0016BF08467FEA23630146420206BF5FEAA7
:1002AC00412390EA010F40F4800070474FF00003A7
:1002BC0004E000BF10F0004348BF40425FEA000C6E
:1002CC0008BF704743F0964301464FF000001CE016
:1002DC0050EA010208BF70474FF000030AE000BF6C
:1002EC0050EA010208BF704711F0004302D54042AA
:1002FC0061EB41015FEA010C02BF8446014600201C
:10030C0043F0B64308BFA3F18053A3F50003BCFA36
:10031C008CF2083AA3EBC25310DB01FA02FC6344E3
:10032C0000FA02FCC2F12002BCF1004F20FA02F2EA
:10033C0043EB020008BF20F00100704702F12002DD
:10034C0001FA02FCC2F1200250EA4C0021FA02F23E
:10035C0043EB020008BF20EADC7070474FF0FF0C43
:10036C001CEAD0521EBF1CEAD15392EA0C0F93EA3E
:10037C000C0F6FD01A4480EA010C400218BF5FEAE0
:10038C0041211ED04FF0006343EA501043EA511153
:10039C00A0FB01310CF00040B1F5000F3EBF49004D
:1003AC0041EAD3715B0040EA010062F17F02FD2A51
:1003BC001DD8B3F1004F40EBC25008BF20F0010034
:1003CC00704790F0000F0CF0004C08BF49024CEA4B
:1003DC00502040EA51207F3AC2BFD2F1FF0340EADD
:1003EC00C250704740F400004FF00003013A5DDC4E
:1003FC0012F1190FDCBF00F000407047C2F100028F
:10040C00410021FA02F1C2F1200200FA02FC5FEA7B
:10041C00310040F1000053EA4C0308BF20EADC70C5
:10042C00704792F0000F00F0004C02BF400010F437
:10043C00000F013AF9D040EA0C0093F0000F01F0E4
:10044C00004C02BF490011F4000F013BF9D041EA06
:10045C000C018FE70CEAD15392EA0C0F18BF93EA08
:10046C000C0F0AD030F0004C18BF31F0004CD8D132
:10047C0080EA010000F00040704790F0000F17BFB9
:10048C0090F0004F084691F0000F91F0004F14D0FF
:10049C0092EA0C0F01D142020FD193EA0C0F03D157
:1004AC004B0218BF084608D180EA010000F000405A
:1004BC0040F0FE4040F40000704740F0FE4040F435
:1004CC00400070474FF0FF0C1CEAD0521EBF1CEAD4
:1004DC00D15392EA0C0F93EA0C0F69D0A2EB0302F2
:1004EC0080EA010C49024FEA402037D04FF080538C
:1004FC0043EA111143EA10130CF000408B4238BF51
:10050C005B0042F17D024FF4000C8B4224BF5B1A5E
:10051C0040EA0C00B3EB510F24BFA3EB510340EAAC
:10052C005C00B3EB910F24BFA3EB910340EA9C005A
:10053C00B3EBD10F24BFA3EBD10340EADC001B01CA
:10054C0018BF5FEA1C1CE0D1FD2A3FF650AF8B426E
:10055C0040EBC25008BF20F0010070470CF0004C7B
:10056C004CEA50207F32C2BFD2F1FF0340EAC250A6
:10057C00704740F400004FF00003013A37E792F067
:10058C00000F00F0004C02BF400010F4000F013AC5
:10059C00F9D040EA0C0093F0000F01F0004C02BFC0
:1005AC00490011F4000F013BF9D041EA0C0195E729
:1005BC000CEAD15392EA0C0F08D142027FF47DAFC2
:1005CC0093EA0C0F7FF470AF084676E793EA0C0FB2
:1005DC0004D14B023FF44CAF08466EE730F0004CB0
:1005EC0018BF31F0004CCAD130F000427FF45CAF40
:1005FC0031F000437FF43CAF5FE700BF4FF0FF3CAE
:10060C0006E000BF4FF0010C02E000BF4FF0010C00
:10061C004DF804CD4FEA40024FEA41037FEA226CC9
:10062C0018BF7FEA236C11D001B052EA530C18BFEB
:10063C0090EA010F58BFB2EB030088BFC81738BF50
:10064C006FEAE17018BF40F0010070477FEA226C3E
:10065C0002D15FEA402C05D17FEA236CE4D15FEA3A
:10066C00412CE1D05DF8040B704700BF844608466E
:10067C006146FFE70FB5FFF7C9FF002848BF10F12F
:10068C00000F0FBD4DF808EDFFF7F4FF0CBF012074
:10069C0000205DF808FB00BF4DF808EDFFF7EAFFFE
:1006AC0034BF012000205DF808FB00BF4DF808EDB9
:1006BC00FFF7E0FF94BF012000205DF808FB00BFAE
:1006CC004DF808EDFFF7D2FF94BF012000205DF834
:1006DC0008FB00BF4DF808EDFFF7C8FF34BF012041
:1006EC0000205DF808FB00BF4FEA4002B2F1FE4F5C
:1006FC000FD34FF09E03B3EB12620DD94FEA0023D8
:10070C0043F0004310F0004F23FA02F018BF4042B0
:10071C0070474FF00000704712F1610F01D1420297
:10072C0005D110F0004008BF6FF0004070474FF04B
:10073C000000704780B483B000AF03460A46FB71DB
:10074C001346BB71054AFB791370054ABB791370CC
:10075C0000BF0C37BD4680BC704700BF7000002046
:10076C007100002080B483B000AF03460A46FB80C2
:10077C001346BB80514B1B78002B25D0B7F90630A4
:10078C00002B09DD4E4B1B6800225A634C4B1B6837
:10079C00B7F906209A633CE0B7F90630002B0ADA69
:1007AC00B7F906305A42464B1B685A63444B1B68D8
:1007BC0000229A632DE0424B1B6800225A63404B87
:1007CC001B6800229A6324E0B7F90630002B09DD80
:1007DC003B4B1B68B7F906205A63394B1B68002248
:1007EC009A6316E0B7F90630002B0ADA344B1B6813
:1007FC0000225A63B7F906305A42314B1B689A6390
:10080C0007E02F4B1B6800225A632D4B1B680022FC
:10081C009A632C4B1B78002B25D0B7F90430002B96
:10082C0009DD274B1B680022DA63254B1B68B7F9DF
:10083C0004201A643CE0B7F90430002B0ADAB7F94B
:10084C0004305A421E4B1B68DA631D4B1B68002296
:10085C001A642DE01A4B1B680022DA63184B1B68D4
:10086C0000221A6424E0B7F90430002B09DD144B84
:10087C001B68B7F90420DA63114B1B6800221A6459
:10088C0016E0B7F90430002B0ADA0D4B1B68002276
:10089C00DA63B7F904305A42094B1B681A6407E053
:1008AC00074B1B680022DA63054B1B6800221A6495
:1008BC0000BF0C37BD4680BC704700BF70000020E5
:1008CC00300100207100002098B500AF454B9B888B
:1008DC001A46444B1B88D31A1846FFF7EBFC034609
:1008EC00414A1360414B1B683F4A12681146184637
:1008FC00FFF734FD03461A463D4B1A603A4B1B6812
:10090C003C4A126811461846FFF71EFC03461A466D
:10091C00394B1B6819461046FFF7D4FD03461A469F
:10092C00364B1B6819461046FFF718FD03461A464E
:10093C00334B1A602C4B1B682E4A13602C4B1B68D4
:10094C002F4A126811461846FFF700FC03461A4658
:10095C002C4B1A602B4B1B682B491846FFF7BAFE21
:10096C000346002B03D0274B274A1A600BE0254B7C
:10097C001B6826491846FFF78FFE0346002B02D052
:10098C00204B224A1A601F4B1B681846FFF7ACFE1F
:10099C0003461BB29AB21E4BB3F900309BB2134400
:1009AC009BB21AB21B4B1A80194BB3F900309CB294
:1009BC00144B1B681846FFF797FE03461BB29BB2FD
:1009CC00E31A9BB21AB2144B1A80124BB3F90030D3
:1009DC00114AB2F9002011461846FFF7C3FE00BFBA
:1009EC0098BD00BF7400002088000020600000202B
:1009FC00900000208C0000200000002064000020EB
:100A0C00940000209800002000007A4400007AC472
:100A1C006E0000206A0000206C00002080B582B0BF
:100A2C0000AF0023BB7130E0FB795B00FB71BB793D
:100A3C001A4A32F81320BB79194931F813309A420B
:100A4C0010D9BB79174A52F82300BB79164A32F8F1
:100A5C0013300122194602F062FDFB7943F00103C9
:100A6C00FB710FE0BB790F4A52F82300BB790E4A99
:100A7C0032F813300022194602F051FDFB7903F0D5
:100A8C000603FB71BB790133BB71BB79022BCBD94C
:100A9C00FB7918460837BD4680BD00BF74000020A6
:100AAC007C0000201C0000202800002080B582B0B3
:100ABC0000AF0346FB710B46BB7113467B71FB7990
:100ACC001A464FF400410A4802F029FDBB791A4638
:100ADC004FF48041064802F022FD7B791A464FF410
:100AEC000051034802F01BFD00BF0837BD4680BD16
:100AFC00000C014080B582B000AF0346FB800122A0
:100B0C001021084802F00BFDFB88184601F0FAF999
:100B1C0000221021034802F002FD00BF0837BD4639
:100B2C0080BD00BF000C014080B584B000AF03460F
:100B3C000A46FB8013467B710023FB730AE0FB889B
:100B4C001846FFF7D7FFFB88184601F0DBF9FB7B53
:100B5C000133FB73FA7B7B799A42F0D300BF00BF61
:100B6C001037BD4680BD000080B483B000AF0023B9
:100B7C00FB7107E0FB790F4A134400221A70FB79D2
:100B8C000133FB71FB79092BF4D90023BB7107E00E
:100B9C00BB79094A134400221A70BB790133BB712B
:100BAC00BB79012BF4D900BF00BF0C37BD4680BC0C
:100BBC00704700BFA0000020AC00002080B582B0C0
:100BCC0000AF00233B60244B3B600023FB710AE029
:100BDC00FB793A681A44FB7920490B4412781A7055
:100BEC00FB790133FB71FB79032BF1D91C4B3B6077
:100BFC000423BB710BE0BB79043B3A681A44BB7904
:100C0C0016490B4412781A70BB790133BB71BB794E
:100C1C00072BF0D9134B3B6008237B710BE07B79DE
:100C2C00083B3A681A447B790C490B4412781A70C9
:100C3C007B7901337B717B79092BF0D94FF0FF3332
:100C4C000A220649084804F01BF9FFF78DFF00BF84
:100C5C000837BD4680BD00BF60000020A00000200A
:100C6C00640000205C0000200802002080B582B0E7
:100C7C0000AF00233B601F4B3B600023FB7109E07E
:100C8C00FA79FB7939680B441B498A5C1A70FB7939
:100C9C000133FB71FB79032BF2D9184B3B60042316
:100CAC00BB710AE0BA79BB79043B39680B44124931
:100CBC008A5C1A70BB790133BB71BB79072BF1D9F4
:100CCC000F4B3B6008237B710AE07A797B79083BF8
:100CDC0039680B4408498A5C1A707B7901337B7143
:100CEC007B79092BF1D9FFF73FFF00BF0837BD46D1
:100CFC0080BD00BF60000020B00000206400002018
:100D0C005C00002080B582B000AF0023FB710CE0CA
:100D1C00FB7903F1006303F5FE331A46FB79117876
:100D2C00064AD154FB790133FB71FB79092BEFD9BE
:100D3C00FFF79CFF00BF0837BD4680BDB000002008
:100D4C00B0B588B000AF02F0BFF80023BB60204BF9
:100D5C003B6101237B613A1D07F1080311461846DC
:100D6C0002F09AF90023FB7729E0FB7F194AD35C48
:100D7C001946FB7F0133174AD35C1B0241EA03027D
:100D8C00FB7F02331349CB5C1B041A43FB7F0333F9
:100D9C001049CB5C1B061343BB61FB7F03F1006363
:100DAC0003F5FE331946BB6900221C461546224644
:100DBC002B46022002F018F8FB7F0433FB77FB7FF5
:100DCC00092BD2D902F0A6F800BF2037BD46B0BD22
:100DDC0000FC0108B000002080B500AF344803F0DF
:100DEC00FDF8344803F0FAF80021334803F098F981
:100DFC000421314803F094F908212F4803F090F9AD
:100E0C000C212D4803F08CF900210020FFF792FCF7
:100E1C0004222A492A4801F071F9FFF773FF0022D6
:100E2C0000210120FFF742FE642001F06BF8002244
:100E3C0001210020FFF73AFE642001F063F8012243
:100E4C0000210020FFF732FE642001F05BF8002245
:100E5C0001210120FFF72AFE642001F053F8012242
:100E6C0001210020FFF722FE642001F04BF8012243
:100E7C0000210120FFF71AFE642001F043F8012243
:100E8C0001210120FFF712FE4FF47A7001F03AF8BD
:100E9C00002200210020FFF709FE03216420FFF748
:100EAC0043FE02220749084804F075F800BF80BDD4
:100EBC0078010020C00100203001002074000020C7
:100ECC00BC000020AC0000200802002098B500AF48
:100EDC0001212A4802F00CFB0346DB005CB28021A6
:100EEC00274802F005FB03469B005BB223435CB230
:100EFC004FF40051234802F0FBFA03465B005BB24F
:100F0C0023435CB24FF400411D4802F0F1FA034652
:100F1C005BB223435BB2DAB21B4B1A701A4B1B78D1
:100F2C00073B082B28D801A252F823F05D0F0008CC
:100F3C00850F0008850F0008850F0008650F000855
:100F4C00850F00086D0F0008750F00087D0F000855
:100F5C000E4B01221A700FE00C4B02221A700BE0A0
:100F6C000A4B03221A7007E0084B04221A7003E0A4
:100F7C00064B00221A7000BF00BF98BD000C014048
:100F8C0000080140001001409C0000206800002077
:100F9C0080B582B000AF78607B681B68284A9342AA
:100FAC004AD1284B1B78232B0FD1264B5B780A2B6D
:100FBC000BD1002200210020FFF778FDFFF7D4FDB4
:100FCC0002222049786803F0E6FF1E4B1B78402B69
:100FDC000FD11C4B5B780A2B0BD101220021012075
:100FEC00FFF764FDFFF7EAFD02221649786803F06B
:100FFC00D2FF144B1B78242B13D1124B5B780A2B8A
:10100C000FD1786803F0ECFF002201210020FFF7DC
:10101C004DFD0A220C49786803F0BDFF0B4B0122F1
:10102C001A70084B1B78252B06D1064B5B780A2BC4
:10103C0002D1074B01221A7000BF0837BD4680BD94
:10104C0000380140AC000020B000002084000020DB
:10105C008500002080B584B000AF00F021FF00F0C7
:10106C004BF900F06DFB00F04DFB00F00BFA00F0BB
:10107C009FF900F0CFFA00F07FFA00F019FBFFF7B0
:10108C00ABFE8E4B1B78042BFBD801A252F823F03D
:10109C0051120008B1100008731100082112000849
:1010AC004312000803214FF4FA70FFF73DFD0023B3
:1010BC00FB604CE06FF0C701C820FFF753FB002327
:1010CC00FB723EE0FB7A7E4A32F81320FB7A7D49B4
:1010DC0031F813309A4207D9FA7AFB7A784931F809
:1010EC001210784A22F81310FB7A754A32F8132042
:1010FC00FB7A754931F813309A4207D2FA7AFB7AA7
:10110C006F4931F81210704A22F81310FB7A6E4AAC
:10111C0032F813301946FB7A6A4A32F813300B4412
:10112C00DA0F13445B1099B2FB7A684A32F8132039
:10113C00FB7A0A4491B2664A22F81310FB7A013307
:10114C00FB72FB7A022BBDD9FB680133FB60FB6899
:10115C00604A9342AED900210020FFF703FB574BA6
:10116C0000221A70A9E00321C820FFF7DDFC002340
:10117C007B6047E00023FB703EE0FB78504A32F87E
:10118C001320FB784F4931F813309A4207D9FA787B
:10119C00FB784B4931F812104A4A22F81310FB78AD
:1011AC00474A32F81320FB78474931F813309A42FA
:1011BC0007D2FA78FB78424931F81210424A22F8E9
:1011CC001310FB78404A32F813301946FB783D4A2D
:1011DC0032F813300B44DA0F13445B1099B2FB78DE
:1011EC003A4A32F81320FB780A4491B2384A22F872
:1011FC001310FB780133FB70FB78022BBDD97B6895
:10120C0001337B607B68334A9342B3D92B4B00226A
:10121C001A7052E0304B1B7803F00F03022B06D1EF
:10122C004FF47A70FFF766FC2C4B01221A70234B9B
:10123C0000221A7041E02A4B01221A701F4B002227
:10124C001A703AE0274B1B78002B19D00A2226493A
:10125C00264803F0A0FEC82000F054FEFFF706FD60
:10126C00224803F0BDFE1F4B00221A7002222049B7
:10127C001E4803F090FE012200210120FFF716FC0E
:10128C001C4B1B78002B16D0012200210020FFF7ED
:10129C000DFCFFF755FDC82000F034FE01220021A3
:1012AC000120FFF703FC02221149104803F073FEE2
:1012BC00104B00221A7000BFE3E6E2E66800002043
:1012CC00740000200C0000200400002014000020FA
:1012DC007C0000201FA1070072000020820000206B
:1012EC008300002084000020B000002008020020B1
:1012FC00AC0000208500002080B594B000AF07F151
:10130C00280328220021184604F0A8FC07F1140336
:10131C0000221A605A609A60DA601A613B1D002242
:10132C001A605A609A60DA600123BB624FF4803312
:10133C00FB6200233B630123BB6302237B644FF4FA
:10134C008033BB644FF4E013FB6407F128031846A9
:10135C0002F0FEF80346002B01D000F00FFB0F2328
:10136C007B610223BB610023FB614FF480633B6212
:10137C0000237B6207F114030221184602F06AFB7A
:10138C000346002B01D000F0F9FA02237B604FF4E6
:10139C000043FB603B1D184602F01AFD0346002B70
:1013AC0001D000F0EBFA00BF5037BD4680BD000005
:1013BC0080B584B000AF3B1D00221A605A609A6061
:1013CC002E4B2F4A1A602D4B4FF480729A602B4B88
:1013DC0001221A73294B00221A75284B4FF46022F4
:1013EC00DA61264B00225A60244B04221A612348EE
:1013FC0000F0ACFD0346002B01D000F0BFFA062331
:10140C007B600123BB600723FB603B1D19461B4817
:10141C0000F06EFF0346002B01D000F0AFFA05235D
:10142C007B600223BB603B1D1946144800F060FF33
:10143C000346002B01D000F0A1FA04237B600323A8
:10144C00BB603B1D19460D4800F052FF0346002BB4
:10145C0001D000F093FA09237B600423BB603B1D91
:10146C001946064800F044FF0346002B01D000F05B
:10147C0085FA00BF1037BD4680BD00BFBC00002000
:10148C000024014080B58AB000AF07F12003002290
:10149C001A605A603B1D00221A605A609A60DA602A
:1014AC001A615A619A61334B4FF080421A60314B8A
:1014BC0047225A602F4B00229A602E4B40F2E732A3
:1014CC00DA602C4B00221A612A4B00229A612948BF
:1014DC0002F0D6FD0346002B01D000F04FFA00239A
:1014EC003B6200237B6207F120031946214803F07D
:1014FC0007FC0346002B01D000F040FA60237B6010
:10150C000023BB600023FB6000237B613B1D00229A
:10151C001946184802F096FF0346002B01D000F044
:10152C002DFA3B1D04221946124802F08BFF03468C
:10153C00002B01D000F022FA3B1D082219460D4861
:10154C0002F080FF0346002B01D000F017FA3B1D80
:10155C000C221946074802F075FF0346002B01D0F8
:10156C0000F00CFA034800F01FFB00BF2837BD4603
:10157C0080BD00BF3001002080B586B000AF07F100
:10158C00080300221A605A609A60DA603B46002217
:10159C001A605A601D4B1E4A1A601C4B47225A6037
:1015AC001A4B00229A60194B40F2E732DA60174B63
:1015BC0000221A61154B00229A61144802F0BEFCFD
:1015CC000346002B01D000F0D9F94FF48053BB60D7
:1015DC0007F1080319460D4802F0F6FF0346002BED
:1015EC0001D000F0CBF900233B6000237B603B462D
:1015FC001946064803F084FB0346002B01D000F08B
:10160C00BDF900BF1837BD4680BD00BF7801002072
:10161C000004004080B586B000AF07F1080300223B
:10162C001A605A609A60DA603B4600221A605A606F
:10163C001D4B1E4A1A601C4B47225A601A4B002243
:10164C009A60194B40F2E732DA60174B00221A61AC
:10165C00154B00229A61144802F070FC0346002BD3
:10166C0001D000F08BF94FF48053BB6007F10803F5
:10167C0019460D4802F0A8FF0346002B01D000F0DC
:10168C007DF900233B6000237B603B4619460648EE
:10169C0003F036FB0346002B01D000F06FF900BFBE
:1016AC001837BD4680BD00BFC001002000080040B7
:1016BC0080B500AF114B124A1A60104B4FF4E13257
:1016CC005A600E4B00229A600C4B0022DA600B4BD6
:1016DC0000221A61094B0C225A61084B00229A61B4
:1016EC00064B0022DA61054803F07AFB0346002B17
:1016FC0001D000F043F900BF80BD00BF08020020FC
:10170C000038014080B582B000AF0C4B5B690B4ACE
:10171C0043F001035361094B5B6903F001037B60E8
:10172C007B68002200210B2001F091F80B2001F0C6
:10173C00AAF800BF0837BD4680BD00BF00100240AC
:10174C0080B588B000AF07F1100300221A605A6010
:10175C009A60DA60414B9B69404A43F010039361F5
:10176C003E4B9B6903F01003FB60FB683B4B9B6992
:10177C003A4A43F020039361384B9B6903F02003F2
:10178C00BB60BB68354B9B69344A43F004039361DF
:10179C00324B9B6903F004037B607B682F4B9B6986
:1017AC002E4A43F0080393612C4B9B6903F008030A
:1017BC003B603B6800224EF21441294801F0AFFE19
:1017CC0000224FF48071274801F0A9FE4FF400531A
:1017DC003B6100237B610123BB6107F110031946B8
:1017EC00214801F001FD48F280033B6100237B613D
:1017FC000123BB6107F1100319461A4801F0F4FCF0
:10180C0001233B6100237B610123BB6107F11003C2
:10181C001946134801F0E8FC4EF214433B610123D6
:10182C007B610023BB610223FB6107F110031946A6
:10183C000B4801F0D9FC4FF480733B6101237B61B1
:10184C000023BB610223FB6107F110031946054815
:10185C0001F0CAFC00BF2037BD4680BD001002401D
:10186C00000C0140000801400010014080B582B01E
:10187C0000AF78607B681B68344A934201D100F05A
:10188C0025FB7B681B68324A93422AD1314B1B786B
:10189C00012B19D1304B5A88304B5B889A4220D996
:1018AC002F4BB3F900301A462E4B1B889A4208DA9C
:1018BC002B4BB3F900309BB202339BB21AB2284BBC
:1018CC001A80FFF701F80CE0254B00221A80264BFA
:1018DC0000221A80254B00221A8000210020FEF7DE
:1018EC0041FF7B681B68224A93422AD1FFF7EEFA2C
:1018FC00FFF794F803461A461E4B1A701D4B1B78C3
:10190C0003F00F03072B02D1124B00221A701A4B53
:10191C001B78012B15D1104BDB88B3F52F7F05D924
:10192C00012200210020FFF7C1F80AE0002200216B
:10193C000020FFF7BBF8074B01221A700E4B002258
:10194C001A7000BF0837BD4680BD00BF002C014097
:10195C000004004082000020740000207C00002065
:10196C006E0000205C0000206A0000206C0000204B
:10197C0000080040720000208300002080B400AFFB
:10198C0072B600BFFEE7000080B485B000AF154B07
:10199C009B69144A43F001039361124B9B6903F05A
:1019AC000103BB60BB680F4BDB690E4A43F08053ED
:1019BC00D3610C4BDB6903F080537B607B680A4B73
:1019CC005B68FB60FB6823F0E063FB60FB6843F043
:1019DC000073FB60044AFB68536000BF1437BD46BC
:1019EC0080BC7047001002400000014080B58AB0F6
:1019FC0000AF786007F1180300221A605A609A60F1
:101A0C00DA607B681B68334A93425FD1324B9B6927
:101A1C00314A43F4007393612F4B9B6903F40073B9
:101A2C007B617B692C4B9B692B4A43F004039361CC
:101A3C00294B9B6903F004033B613B69264B9B6973
:101A4C00254A43F008039361234B9B6903F0080379
:101A5C00FB60FB687023BB610323FB6107F1180378
:101A6C0019461E4801F0C0FB0223BB610323FB6136
:101A7C0007F1180319461A4801F0B6FB194B1A4A1C
:101A8C001A60184B00225A60164B00229A60154BB4
:101A9C008022DA60134B4FF480721A61114B4FF4B1
:101AAC0080625A610F4B20229A610E4B0022DA6140
:101ABC000C4800F0F7FE0346002B01D0FFF75EFF49
:101ACC007B68084A1A62074A7B68536200BF283752
:101ADC00BD4680BD002401400010024000080140BA
:101AEC00000C0140EC0000200800024080B485B0DE
:101AFC0000AF78607B681B68B3F1804F0BD1084B4B
:101B0C00DB69074A43F00103D361054BDB6903F042
:101B1C000103FB60FB6800BF1437BD4680BC7047F7
:101B2C000010024080B584B000AF78607B681B6801
:101B3C001A4A934214D11A4BDB69194A43F0020337
:101B4C00D361174BDB6903F00203FB60FB680022D7
:101B5C0000211D2000F07BFE1D2000F094FE18E0FB
:101B6C007B681B680F4A934213D10D4BDB690C4AFF
:101B7C0043F00403D3610A4BDB6903F00403BB603D
:101B8C00BB68002200211E2000F061FE1E2000F028
:101B9C007AFE00BF1037BD4680BD00BF0004004078
:101BAC00001002400008004080B588B000AF78609B
:101BBC0007F1100300221A605A609A60DA607B68A1
:101BCC001B68B3F1804F17D10D4B9B690C4A43F046
:101BDC00040393610A4B9B6903F00403FB60FB68ED
:101BEC000F233B6102237B610223FB6107F110038E
:101BFC001946044801F0F8FA00BF2037BD4680BDF5
:101C0C00001002400008014080B588B000AF786039
:101C1C0007F1100300221A605A609A60DA607B6840
:101C2C001B68204A934239D11F4B9B691E4A43F4CF
:101C3C00804393611C4B9B6903F48043FB60FB68FE
:101C4C00194B9B69184A43F004039361164B9B692B
:101C5C0003F00403BB60BB684FF400733B610223C9
:101C6C007B610323FB6107F1100319460F4801F058
:101C7C00BBFA4FF480633B6100237B610023BB61A3
:101C8C0007F110031946094801F0AEFA00220021B1
:101C9C00252000F0DCFD252000F0F5FD00BF2037ED
:101CAC00BD4680BD003801400010024000080140D4
:101CBC0080B58CB000AF78600023BB6200237B62E0
:101CCC00002387F82F302E4B9B692D4A43F4006379
:101CDC0093612B4B9B6903F40063BB60BB6807F1FA
:101CEC000C0207F110031146184602F023F802F01B
:101CFC000DF8B862BB6A234AA2FB03239B0C013B81
:101D0C007B62214B214A1A601F4B40F2E732DA60AA
:101D1C001D4A7B6A53601C4B00221A611A4B00222D
:101D2C009A60194B00229A61174802F007F9034692
:101D3C0087F82F3097F82F30002B1BD1124802F068
:101D4C004DF9034687F82F3097F82F30002B11D11F
:101D5C00192000F098FD7B680F2B08D800227968B9
:101D6C00192000F074FD0A4A7B68136002E001231D
:101D7C0087F82F3097F82F3018463037BD4680BD86
:101D8C000010024083DE1B4350020020002C014057
:101D9C003400002080B400AFFEE780B400AFFEE753
:101DAC0080B400AFFEE780B400AFFEE780B400AFB4
:101DBC00FEE780B400AF00BFBD4680BC704780B466
:101DCC0000AF00BFBD4680BC704780B400AF00BF01
:101DDC00BD4680BC704780B400AF00BFBD4680BC20
:101DEC007047000080B500AF024800F0C9FE00BF8C
:101DFC0080BD00BFEC00002080B500AF024802F0AF
:101E0C0031FA00BF80BD00BF5002002080B500AF8A
:101E1C00024802F027FA00BF80BD00BF7801002005
:101E2C0080B500AF024802F01DFA00BF80BD00BFB4
:101E3C00C001002080B500AF024803F083F900BF59
:101E4C0080BD00BF0802002080B400AF00BFBD46BB
:101E5C0080BC7047FFF7F8FF0B480C490C4A002375
:101E6C0002E0D458C4500433C4188C42F9D3094A44
:101E7C00094C002301E013600432A242FBD303F0AF
:101E8C00F5FEFFF7E7F87047000000203C0000204B
:101E9C000C5D000840000020C0020020FEE700009E
:101EAC0080B500AF084B1B68074A43F01003136062
:101EBC00032000F0C1FC0F20FFF7FAFEFFF764FDD2
:101ECC000023184680BD00BF0020024080B400AF44
:101EDC00054B1B781A46054B1B681344034A1360C9
:101EEC0000BFBD4680BC704738000020980200201F
:101EFC0080B400AF024B1B681846BD4680BC7047CF
:101F0C009802002080B584B000AF7860FFF7F0FF36
:101F1C00B8607B68FB60FB68B3F1FF3F05D00A4BF0
:101F2C001B781A46FB681344FB6000BFFFF7E0FF09
:101F3C000246BB68D31AFA689A42F7D800BF00BFB2
:101F4C001037BD4680BD00BF3800002080B586B07C
:101F5C0000AF78600023FB7500233B610023BB605E
:101F6C000023FB607B68002B01D10123BEE07B6862
:101F7C009B68002B7B689B6A002B09D17B68002235
:101F8C00DA627B68002283F824207868FFF72EFD44
:101F9C00786800F0FFFA0346FB757B689B6A03F0D8
:101FAC001003002B40F09980FB7D002B40F09580B6
:101FBC007B689B6A23F4885323F0020343F00202EC
:101FCC007B689A627B685A687B68DB691A437B681A
:101FDC001B7B5B001343BA681343BB607B689B6835
:101FEC00B3F5807F03D07B689B68012B02D14FF443
:101FFC00807300E000233A6913433B617B681B7DCF
:10200C00012B19D17B681B7B002B09D17B689B6949
:10201C00013B5A033B69134343F400633B610BE000
:10202C007B689B6A43F020027B689A627B68DB6A60
:10203C0043F001027B68DA627B681B685B6823F4FF
:10204C0069417B681B683A690A435A607B681B6864
:10205C009A68284B13407A681268B9680B439360EE
:10206C007B689B68B3F5807F03D07B689B68012BF2
:10207C0004D17B681B69013B1B05FB607B681B68FB
:10208C00DB6A23F470017B681B68FA680A43DA6226
:10209C007B681B689A68184B1340BA689A420BD13C
:1020AC007B680022DA627B689B6A23F0030343F0AF
:1020BC0001027B689A6218E07B689B6A23F012032A
:1020CC0043F010027B689A627B68DB6A43F0010282
:1020DC007B68DA620123FB7507E07B689B6A43F03F
:1020EC0010027B689A620123FB75FB7D184618373A
:1020FC00BD4680BDFDF7E1FFFE0E1FFF80B586B02B
:10210C0000AFF860B9607A600023FB75FB681B6850
:10211C00644A934204D0FB681B68634A934206D11D
:10212C00604B5B6803F47023002B40F0B380FB68BA
:10213C0093F82430012B01D10223AEE0FB6801227D
:10214C0083F82420F86800F0CBF90346FB75FB7D7F
:10215C00002B40F09A80FB689B6A23F4706323F099
:10216C00010343F48072FB689A62FB681B684E4A59
:10217C00934205D14B4B5B6803F47023002B15D1B4
:10218C00FB689B6A23F48012FB689A62FB681B68ED
:10219C005B6803F48063002B26D0FB689B6A23F4F6
:1021AC00405343F48052FB689A621DE0FB689B6AC3
:1021BC0043F48012FB689A62FB681B68394A9342AD
:1021CC0004D0FB681B68384A93420DD1354B5B68D1
:1021DC0003F48063002B07D0FB689B6A23F4405305
:1021EC0043F48052FB689A62FB689B6A03F4805349
:1021FC00002B06D0FB68DB6A23F00602FB68DA6270
:10220C0002E0FB680022DA62FB68002283F82420DB
:10221C00FB681B6A254A9A62FB681B6A244ADA62CD
:10222C00FB681B6A234A1A63FB681B686FF0020287
:10223C001A60FB681B689A68FB681B6842F4807222
:10224C009A60FB68186AFB681B684C331946BA68BD
:10225C007B6800F081FBFB681B689B6803F46023C0
:10226C00B3F5602F08D1FB681B689A68FB681B6884
:10227C0042F4A0029A600FE0FB681B689A68FB6846
:10228C001B6842F480129A6006E0FB68002283F817
:10229C00242001E00123FB75FB7D18461837BD4651
:1022AC0080BD00BF00240140002801402326000807
:1022BC009F260008BB26000880B483B000AF78606E
:1022CC0000BF0C37BD4680BC704780B483B000AFF4
:1022DC00786000BF0C37BD4680BC704780B483B0BB
:1022EC0000AF786000BF0C37BD4680BC7047000063
:1022FC0080B485B000AF786039600023FB73002395
:10230C00BB607B6893F82430012B01D10223DCE005
:10231C007B68012283F824203B685B68062B1CD861
:10232C007B681B68596B3B685A6813469B001344C7
:10233C00053B1F2202FA03F3DB4319403B68186884
:10234C003B685A6813469B001344053B00FA03F2A2
:10235C007B681B680A435A633CE03B685B680C2B48
:10236C001CD87B681B68196B3B685A6813469B002A
:10237C001344233B1F2202FA03F3DB4319403B684F
:10238C0018683B685A6813469B001344233B00FAB9
:10239C0003F27B681B680A431A631BE07B681B68AB
:1023AC00D96A3B685A6813469B001344413B1F2271
:1023BC0002FA03F3DB4319403B6818683B685A6820
:1023CC0013469B001344413B00FA03F27B681B68E5
:1023DC000A43DA623B681B68092B1CD97B681B68B3
:1023EC00D9683B681A6813465B0013441E3B0722EE
:1023FC0002FA03F3DB4319403B6898683B681A68A0
:10240C0013465B0013441E3B00FA03F27B681B6807
:10241C000A43DA6019E07B681B6819693B681A6823
:10242C0013465B001344072202FA03F3DB43194003
:10243C003B6898683B681A6813465B00134400FAC3
:10244C0003F27B681B680A431A613B681B68102BFC
:10245C0003D03B681B68112B32D17B681B681D4A6B
:10246C00934225D17B681B689B6803F40003002B07
:10247C0026D17B681B689A687B681B6842F4000253
:10248C009A603B681B68102B1AD1134B1B68134ABC
:10249C00A2FB03239A0C13469B0013445B00BB6006
:1024AC0002E0BB68013BBB60BB68002BF9D107E0C5
:1024BC007B689B6A43F020027B689A620123FB7362
:1024CC007B68002283F82420FB7B18461437BD461A
:1024DC0080BC7047002401403000002083DE1B4389
:1024EC0080B584B000AF78600023FB600023BB6034
:1024FC007B681B689B6803F00103012B40D07B6851
:10250C001B689A687B681B6842F001029A601F4B3B
:10251C001B681F4AA2FB03239B0CBB6002E0BB6839
:10252C00013BBB60BB68002BF9D1FFF7E1FCF86005
:10253C001FE0FFF7DDFC0246FB68D31A022B18D90B
:10254C007B681B689B6803F00103012B11D07B682F
:10255C009B6A43F010027B689A627B68DB6A43F0EB
:10256C0001027B68DA627B68002283F82420012355
:10257C0007E07B681B689B6803F00103012BD8D133
:10258C00002318461037BD4680BD00BF3000002028
:10259C0083DE1B4380B584B000AF78600023FB6002
:1025AC007B681B689B6803F00103012B2ED17B68B1
:1025BC001B689A687B681B6822F001029A60FFF71F
:1025CC0097FCF8601BE0FFF793FC0246FB68D31AFC
:1025DC00022B14D97B681B689B6803F00103012B49
:1025EC000DD17B689B6A43F010027B689A627B6812
:1025FC00DB6A43F001027B68DA62012307E07B6847
:10260C001B689B6803F00103012BDCD000231846E8
:10261C001037BD4680BD80B584B000AF78607B6854
:10262C005B6AFB60FB689B6A03F05003002B27D1AD
:10263C00FB689B6A43F40072FB689A62FB681B6838
:10264C009B6803F46023B3F5602F15D1FB681B7BEB
:10265C00002B11D1FB689B6A23F48072FB689A6291
:10266C00FB689B6A03F48053002B05D1FB689B6AC3
:10267C0043F00102FB689A62F868FFF71DFE04E064
:10268C00FB681B6A1B6B7868984700BF1037BD4608
:10269C0080BD80B584B000AF78607B685B6AFB60FE
:1026AC00F868FFF712FE00BF1037BD4680BD80B53D
:1026BC0084B000AF78607B685B6AFB60FB689B6AE8
:1026CC0043F04002FB689A62FB68DB6A43F0040249
:1026DC00FB68DA62F868FFF701FE00BF1037BD46F1
:1026EC0080BD000080B485B000AF78607B6803F0DB
:1026FC000703FB600C4BDB68BB60BA684FF6FF034B
:10270C001340BB60FB681A02BB68134343F0BF6302
:10271C0043F40033BB60044ABB68D36000BF14377A
:10272C00BD4680BC704700BF00ED00E080B400AF38
:10273C00044BDB681B0A03F007031846BD4680BC3C
:10274C00704700BF00ED00E080B483B000AF0346DB
:10275C00FB7197F90730002B0BDBFB7903F01F02A1
:10276C00064997F907305B09012000FA02F241F89B
:10277C00232000BF0C37BD4680BC704700E100E051
:10278C0080B483B000AF03463960FB7197F9073012
:10279C00002B0ADB3B68DAB20C4997F907301201BF
:1027AC00D2B20B4483F800230AE03B68DAB2084942
:1027BC00FB7903F00F03043B1201D2B20B441A76DF
:1027CC0000BF0C37BD4680BC704700BF00E100E085
:1027DC0000ED00E080B489B000AFF860B9607A60B9
:1027EC00FB6803F00703FB61FB69C3F10703042BD0
:1027FC0028BF0423BB61FB690433062B02D9FB6998
:10280C00033B00E000237B614FF0FF32BB6902FA0F
:10281C0003F3DA43BB681A407B699A404FF0FF31EF
:10282C007B6901FA03F3D9437B680B4013431846C9
:10283C002437BD4680BC704780B582B000AF78604D
:10284C007868FFF74FFF00BF0837BD4680BD80B5E5
:10285C0086B000AF0346B9607A60FB7300237B61DE
:10286C00FFF764FF78617A68B9687869FFF7B2FF9F
:10287C00024697F90F3011461846FFF781FF00BF4B
:10288C001837BD4680BD80B582B000AF0346FB71E2
:10289C0097F907301846FFF757FF00BF0837BD46BA
:1028AC0080BD000080B485B000AF78600023FB6071
:1028BC007B68002B01D1012343E07B681B681A461F
:1028CC00224B1344224AA2FB03231B099A007B6868
:1028DC001A647B681F4ADA637B68022283F8212022
:1028EC007B681B681B68FB60FB6823F47F5323F039
:1028FC003003FB607B685A687B689B681A437B6873
:10290C00DB681A437B681B691A437B685B691A4353
:10291C007B689B691A437B68DB691343FA68134332
:10292C00FB607B681B68FA681A607B6800229A63FC
:10293C007B68012283F821207B68002283F8202009
:10294C00002318461437BD4680BC7047F8FFFDBF06
:10295C00CDCCCCCC0000024080B586B000AFF86086
:10296C00B9607A603B600023FB75FB6893F82030FC
:10297C00012B01D102234BE0FB68012283F82020BC
:10298C00FB6893F82130DBB2012B3AD1FB680222B1
:10299C0083F82120FB6800229A63FB681B681A6885
:1029AC00FB681B6822F001021A603B687A68B96800
:1029BC00F86800F0EBF9FB68DB6A002B08D0FB68C9
:1029CC001B681A68FB681B6842F00E021A600FE065
:1029DC00FB681B681A68FB681B6822F004021A600B
:1029EC00FB681B681A68FB681B6842F00A021A60D5
:1029FC00FB681B681A68FB681B6842F001021A60CE
:102A0C0005E0FB68002283F820200223FB75FB7D88
:102A1C0018461837BD4680BD80B485B000AF7860CD
:102A2C000023FB737B6893F82130DBB2022B08D0B8
:102A3C007B6804229A637B68002283F820200123A0
:102A4C0020E07B681B681A687B681B6822F00E020A
:102A5C001A607B681B681A687B681B6822F001028D
:102A6C001A607B681A6C7B68DB6B012101FA02F23D
:102A7C005A607B68012283F821207B68002283F84E
:102A8C002020FB7B18461437BD4680BC70470000E5
:102A9C0080B584B000AF78600023FB737B6893F83B
:102AAC002130DBB2022B05D07B6804229A63012310
:102ABC00FB7351E07B681B681A687B681B6822F00B
:102ACC000E021A607B681B681A687B681B6822F010
:102ADC0001021A607B681B68224A934229D07B68EA
:102AEC001B68214A934222D07B681B681F4A934281
:102AFC001AD07B681B681E4A934212D07B681B68F5
:102B0C001C4A93420AD07B681B681B4A934202D131
:102B1C004FF480130EE04FF080730BE04FF48033D2
:102B2C0008E04FF4805305E04FF4807302E010236B
:102B3C0000E00123114A53607B68012283F82120B5
:102B4C007B68002283F820207B685B6B002B03D012
:102B5C007B685B6B78689847FB7B18461037BD46E3
:102B6C0080BD00BF080002401C0002403000024043
:102B7C0044000240580002406C0002400000024039
:102B8C0080B584B000AF78607B68DB6B1B68FB6042
:102B9C007B681B681B68BB607B681B6C04229A40BB
:102BAC00FB681340002B4FD0BB6803F00403002BD1
:102BBC004AD07B681B681B6803F02003002B07D1ED
:102BCC007B681B681A687B681B6822F004021A6019
:102BDC007B681B68664A934229D07B681B68654AF0
:102BEC00934222D07B681B68634A93421AD07B685D
:102BFC001B68624A934212D07B681B68604A9342FE
:102C0C000AD07B681B685F4A934202D14FF4800361
:102C1C000EE04FF080630BE04FF4802308E04FF49C
:102C2C00804305E04FF4806302E0402300E004237E
:102C3C00554A53607B68DB6A002B00F094807B68FC
:102C4C00DB6A786898478EE07B681B6C02229A409E
:102C5C00FB681340002B56D0BB6803F00203002B1B
:102C6C0051D07B681B681B6803F02003002B0BD131
:102C7C007B681B681A687B681B6822F00A021A6062
:102C8C007B68012283F821207B681B68384A9342B9
:102C9C0029D07B681B68374A934222D07B681B681B
:102CAC00354A93421AD07B681B68344A934212D03F
:102CBC007B681B68324A93420AD07B681B68314A96
:102CCC00934202D14FF400130EE04FF000730BE06F
:102CDC004FF4003308E04FF4005305E04FF4007359
:102CEC0002E0202300E00223274A53607B68002285
:102CFC0083F820207B689B6A002B34D07B689B6A0E
:102D0C00786898472FE07B681B6C08229A40FB6818
:102D1C001340002B28D0BB6803F00803002B23D0F2
:102D2C007B681B681A687B681B6822F00E021A60AD
:102D3C007B681A6C7B68DB6B012101FA02F25A602A
:102D4C007B6801229A637B68012283F821207B68CF
:102D5C00002283F820207B681B6B002B04D07B683F
:102D6C001B6B7868984700BF00BF1037BD4680BD0D
:102D7C00080002401C0002403000024044000240A7
:102D8C00580002406C0002400000024080B485B044
:102D9C0000AFF860B9607A603B60FB681A6CFB6846
:102DAC00DB6B012101FA02F25A60FB681B683A687E
:102DBC005A60FB685B68102B08D1FB681B687A684B
:102DCC009A60FB681B68BA68DA6007E0FB681B68EE
:102DDC00BA689A60FB681B687A68DA6000BF1437BF
:102DEC00BD4680BC70470000F0B587B000AFF860FE
:102DFC00B960C7E900230123FB750023BB750023D1
:102E0C007B752F4B1B7E012B01D1022354E02C4BE5
:102E1C0001221A764CF2503000F0A8F80346FB75EC
:102E2C00FB7D002B44D1FB68012B02D101237B7568
:102E3C0007E0FB68022B02D102237B7501E004231F
:102E4C007B750023BB752DE0BB7D5A00BB6802EB84
:102E5C00030CBB7D1901D7E90023C1F12006A1F1B8
:102E6C00200022FA01F403FA06F6344323FA00F0A8
:102E7C00044323FA01F5A3B21946604600F05AF850
:102E8C004CF2503000F072F80346FB750D4B1B6989
:102E9C000C4A23F001031361FB7D002B07D1BB7D92
:102EAC000133BB75BA7D7B7D9A42CDD300E000BF68
:102EBC00034B00221A76FB7D18461C37BD46F0BD2D
:102ECC00A00200200020024080B483B000AF002399
:102EDC00FB710D4B1B6903F08003002B0DD00A4BCB
:102EEC000A4A5A60084B0A4A5A60074B1B6903F09E
:102EFC008003002B01D00123FB71FB7918460C37A2
:102F0C00BD4680BC704700BF0020024023016745CE
:102F1C00AB89EFCD80B400AF054B1B69044A43F07D
:102F2C008003136100231846BD4680BC704700BF68
:102F3C000020024080B483B000AF78600B467B80E9
:102F4C00084B0022DA61084B1B69074A43F0010366
:102F5C0013617B687A881A8000BF0C37BD4680BC31
:102F6C00704700BFA00200200020024080B584B052
:102F7C0000AF7860FEF7BCFFF86010E07B68B3F13F
:102F8C00FF3F0CD07B68002B07D0FEF7B1FF024649
:102F9C00FB68D31A7A689A4201D2032325E0154BB9
:102FAC00DB6803F00103002BE8D1124BDB6803F064
:102FBC002003002B02D00F4B2022DA600D4BDB6874
:102FCC0003F01003002B0BD10A4BDB6903F0010358
:102FDC00002B05D1074BDB6803F00403002B03D057
:102FEC0000F00AF8012300E0002318461037BD4614
:102FFC0080BD00BF0020024080B483B000AF00232E
:10300C007B60234BDB6803F01003002B09D0214BB2
:10301C00DB6943F002031F4AD3617B6843F0100362
:10302C007B601B4BDB6803F00403002B09D0194BAE
:10303C00DB6943F00103174AD3617B6843F0040357
:10304C007B60134BDB6903F00103002B0BD0114B9E
:10305C00DB6943F004030F4AD3610D4BDB690C4A67
:10306C0023F00103D3617B6840F20112934206D135
:10307C00074BDB69064A23F00103D36102E0044AE3
:10308C007B68D36000BF0C37BD4680BC704700BF67
:10309C0000200240A002002080B584B000AF786010
:1030AC0039600123FB730023BB602F4B1B7E012B6C
:1030BC0001D1022353E02C4B01221A767B681B684A
:1030CC00022B16D14CF25030FFF750FF0346002B69
:1030DC0041D1012000F04CF84CF25030FFF746FF84
:1030EC000346FB73214B1B69204A23F00403136135
:1030FC0031E04CF25030FFF739FF0346002B2AD158
:10310C003B684FF0FF321A607B689B68BB6019E02C
:10311C00B86800F049F84CF25030FFF727FF03462F
:10312C00FB73124B1B69114A23F002031361FB7BE7
:10313C00002B03D03B68BA681A600CE0BB6803F53F
:10314C008063BB607B68DB689A027B689B68134476
:10315C00BA689A42DCD3044B00221A76FB7B1846E1
:10316C001037BD4680BD00BFA002002000200240E9
:10317C0080B483B000AF7860094B0022DA61094B50
:10318C001B69084A43F004031361064B1B69054A8B
:10319C0043F04003136100BF0C37BD4680BC704741
:1031AC00A00200200020024080B483B000AF786001
:1031BC000B4B0022DA610B4B1B690A4A43F00203EA
:1031CC001361084A7B685361064B1B69054A43F03F
:1031DC004003136100BF0C37BD4680BC704700BF75
:1031EC00A00200200020024080B48BB000AF7860B9
:1031FC00396000237B6200233B6269E101227B6A18
:10320C0002FA03F3FB613B681B68FA691340BB616C
:10321C00BA69FB699A4240F058813B685B689A4AEC
:10322C0093425ED0984A934275D8984A934258D0AC
:10323C00964A93426FD8964A934252D0944A9342FC
:10324C0069D8944A93424CD0924A934263D8924A9A
:10325C00934246D0904A93425DD8122B2AD8122B17
:10326C0059D801A252F823F0EF320008C9320008F5
:10327C00DB3200081D330008233300082333000819
:10328C0023330008233300082333000823330008BA
:10329C0023330008233300082333000823330008AA
:1032AC00233300082333000823330008D1320008ED
:1032BC00E5320008794A934213D02CE03B68DB6876
:1032CC003B6229E03B68DB6804333B6224E03B68EB
:1032DC00DB6808333B621FE03B68DB680C333B6206
:1032EC001AE03B689B68002B02D104233B6213E07D
:1032FC003B689B68012B05D108233B627B68FA690C
:10330C001A6109E008233B627B68FA695A6103E0A1
:10331C0000233B6200E000BFBB69FF2B01D87B6838
:10332C0001E07B6804337B61BB69FF2B02D87B6AAD
:10333C009B0002E07B6A083B9B003B617B691A683F
:10334C000F213B6901FA03F3DB431A40396A3B69ED
:10335C0001FA03F31A437B691A603B685B6803F05C
:10336C008053002B00F0B1804D4B9B694C4A43F0CD
:10337C00010393614A4B9B6903F00103BB60BB687B
:10338C00484A7B6A9B08023352F82330FB607B6A05
:10339C0003F003039B000F2202FA03F3DB43FA68EA
:1033AC001340FB607B68404A934213D07B683F4AD2
:1033BC0093420DD07B683E4A934207D07B683D4ACE
:1033CC00934201D1032306E0042304E0022302E02C
:1033DC00012300E000237A6A02F00302920093407A
:1033EC00FA681343FB602F497B6A9B080233FA6827
:1033FC0041F823203B685B6803F48013002B06D054
:10340C002D4B9A682C49BB6913438B6006E02A4B01
:10341C009A68BB69DB43284913408B603B685B6847
:10342C0003F40013002B06D0234BDA682249BB6946
:10343C001343CB6006E0204BDA68BB69DB431E49C3
:10344C001340CB603B685B6803F40033002B06D061
:10345C00194B5A681849BB6913434B6006E0164B6D
:10346C005A68BB69DB43144913404B603B685B688B
:10347C0003F48033002B21D00F4B1A680E49BB6923
:10348C0013430B6021E000BF00003210000031102C
:10349C00000022100000211000001210000011107A
:1034AC00001002400000014000080140000C0140E7
:1034BC000010014000140140000401400B4B1A683D
:1034CC00BB69DB43094913400B607B6A01337B62A8
:1034DC003B681A687B6A22FA03F3002B7FF48EAEEA
:1034EC0000BF00BF2C37BD4680BC704700040140B4
:1034FC0080B485B000AF78600B467B807B689A689F
:10350C007B881340002B02D00123FB7301E00023C6
:10351C00FB73FB7B18461437BD4680BC704780B4E8
:10352C0083B000AF78600B467B8013467B707B7852
:10353C00002B03D07A887B681A6103E07B881A041D
:10354C007B681A6100BF0C37BD4680BC7047000019
:10355C0080B586B000AF78607B68002B01D1012369
:10356C0072E27B681B6803F00103002B00F087807C
:10357C00924B5B6803F00C03042B0CD08F4B5B68F5
:10358C0003F00C03082B12D18C4B5B6803F48033D3
:10359C00B3F5803F0BD1894B1B6803F40033002B30
:1035AC006CD07B685B68002B68D101234CE27B6894
:1035BC005B68B3F5803F06D1804B1B687F4A43F4B0
:1035CC00803313602EE07B685B68002B0CD17B4B47
:1035DC001B687A4A23F480331360784B1B68774A54
:1035EC0023F4802313601DE07B685B68B3F5A02F88
:1035FC000CD1724B1B68714A43F4802313606F4BE0
:10360C001B686E4A43F4803313600BE06B4B1B68F2
:10361C006A4A23F480331360684B1B68674A23F4AF
:10362C00802313607B685B68002B13D0FEF760FC73
:10363C00386108E0FEF75CFC02463B69D31A642B48
:10364C0001D9032300E25D4B1B6803F40033002B0C
:10365C00F0D014E0FEF74CFC386108E0FEF748FCB3
:10366C0002463B69D31A642B01D90323ECE1534B7B
:10367C001B6803F40033002BF0D100E000BF7B6823
:10368C001B6803F00203002B63D04C4B5B6803F008
:10369C000C03002B0BD0494B5B6803F00C03082B7D
:1036AC001CD1464B5B6803F48033002B16D1434B83
:1036BC001B6803F00203002B05D07B681B69012BF0
:1036CC0001D00123C0E13D4B1B6823F0F8027B685D
:1036DC005B69DB00394913430B603AE07B681B697B
:1036EC00002B20D0364B01221A60FEF701FC38610A
:1036FC0008E0FEF7FDFB02463B69D31A022B01D909
:10370C000323A1E12D4B1B6803F00203002BF0D027
:10371C002A4B1B6823F0F8027B685B69DB002749A6
:10372C0013430B6015E0264B00221A60FEF7E0FBFA
:10373C00386108E0FEF7DCFB02463B69D31A022B2A
:10374C0001D9032380E11D4B1B6803F00203002BFE
:10375C00F0D17B681B6803F00803002B3AD07B6820
:10376C009B69002B19D0174B01221A60FEF7C0FB86
:10377C00386108E0FEF7BCFB02463B69D31A022B0A
:10378C0001D9032360E10D4B5B6A03F00203002BAC
:10379C00F0D0012000F0FEFA1CE00A4B00221A6067
:1037AC00FEF7A6FB38610FE0FEF7A2FB02463B6971
:1037BC00D31A022B08D9032346E100BF00100240A4
:1037CC000000424280044242924B5B6A03F00203C7
:1037DC00002BE9D17B681B6803F00403002B00F07D
:1037EC00A6800023FB758B4BDB6903F08053002B09
:1037FC000DD1884BDB69874A43F08053D361854BED
:10380C00DB6903F08053BB60BB680123FB75824B03
:10381C001B6803F48073002B18D17F4B1B687E4A06
:10382C0043F480731360FEF763FB386108E0FEF726
:10383C005FFB02463B69D31A642B01D9032303E1D6
:10384C00754B1B6803F48073002BF0D07B68DB682E
:10385C00012B06D16F4B1B6A6E4A43F001031362B6
:10386C002DE07B68DB68002B0CD16A4B1B6A694A24
:10387C0023F001031362674B1B6A664A23F00403AF
:10388C0013621CE07B68DB68052B0CD1614B1B6A57
:10389C00604A43F0040313625E4B1B6A5D4A43F0BB
:1038AC00010313620BE05B4B1B6A5A4A23F00103C2
:1038BC001362584B1B6A574A23F0040313627B684C
:1038CC00DB68002B15D0FEF713FB38610AE0FEF71E
:1038DC000FFB02463B69D31A41F28832934201D95D
:1038EC000323B1E04B4B1B6A03F00203002BEED019
:1038FC0014E0FEF7FDFA38610AE0FEF7F9FA024629
:10390C003B69D31A41F28832934201D903239BE0DD
:10391C00404B1B6A03F00203002BEED1FB7D012B05
:10392C0005D13C4BDB693B4A23F08053D3617B6868
:10393C00DB69002B00F08780364B5B6803F00C03CF
:10394C00082B61D07B68DB69022B46D1334B0022FC
:10395C001A60FEF7CDFA386108E0FEF7C9FA0246A4
:10396C003B69D31A022B01D903236DE0294B1B6849
:10397C0003F00073002BF0D17B681B6AB3F5803F1A
:10398C0008D1244B5B6823F400327B689B68214987
:10399C0013434B601F4B5B6823F474127B68196AEA
:1039AC007B685B6A0B431B4913434B601B4B012227
:1039BC001A60FEF79DFA386108E0FEF799FA0246A4
:1039CC003B69D31A022B01D903233DE0114B1B6831
:1039DC0003F00073002BF0D035E0104B00221A607E
:1039EC00FEF786FA386108E0FEF782FA02463B6978
:1039FC00D31A022B01D9032326E0064B1B6803F0D4
:103A0C000073002BF0D11EE07B68DB69012B07D122
:103A1C00012319E000100240007000406000424297
:103A2C000B4B5B68FB60FB6803F480327B681B6AA2
:103A3C009A4206D1FB6803F470127B685B6A9A4267
:103A4C0001D0012300E0002318461837BD4680BD85
:103A5C000010024080B584B000AF786039607B689C
:103A6C00002B01D10123D0E06A4B1B6803F0070344
:103A7C003A689A4210D9674B1B6823F007026549D4
:103A8C003B6813430B60634B1B6803F007033A68F6
:103A9C009A4201D00123B8E07B681B6803F0020353
:103AAC00002B20D07B681B6803F00403002B05D08F
:103ABC00594B5B68584A43F4E06353607B681B685E
:103ACC0003F00803002B05D0534B5B68524A43F4B8
:103ADC0060535360504B5B6823F0F0027B689B682B
:103AEC004D4913434B607B681B6803F00103002BAB
:103AFC0040D07B685B68012B07D1474B1B6803F4F4
:103B0C000033002B15D101237FE07B685B68022B0F
:103B1C0007D1414B1B6803F00073002B09D1012323
:103B2C0073E03D4B1B6803F00203002B01D1012312
:103B3C006BE0394B5B6823F003027B685B683649AA
:103B4C0013434B60FEF7D4F9F8600AE0FEF7D0F9A6
:103B5C000246FB68D31A41F28832934201D90323FF
:103B6C0053E02D4B5B6803F00C027B685B689B0099
:103B7C009A42EBD1274B1B6803F007033A689A4231
:103B8C0010D2244B1B6823F0070222493B681343D5
:103B9C000B60204B1B6803F007033A689A4201D074
:103BAC00012332E07B681B6803F00403002B08D070
:103BBC00194B5B6823F4E0627B68DB68164913439E
:103BCC004B607B681B6803F00803002B09D0124B79
:103BDC005B6823F460527B681B69DB000E4913435E
:103BEC004B6000F021F802460B4B5B681B0903F09D
:103BFC000F030A49CB5C22FA03F3094A1360094B01
:103C0C001B681846FEF754F8002318461037BD46BB
:103C1C0080BD00BF0020024000100240D85C0008AC
:103C2C00300000203400002080B487B000AF0023A7
:103C3C00FB600023BB6000237B6100237B600023BF
:103C4C003B611E4B5B68FB60FB6803F00C03042BB1
:103C5C0002D0082B03D027E0194B3B6127E0FB680F
:103C6C009B0C03F00F03174AD35C7B60FB6803F4D7
:103C7C008033002B10D0114B5B685B0C03F00103FD
:103C8C00114AD35CBB607B680D4A03FB02F2BB6834
:103C9C00B2FBF3F37B6104E07B680C4A02FB03F399
:103CAC007B617B693B6102E0054B3B6100BF3B697B
:103CBC0018461C37BD4680BC704700BF0010024040
:103CCC0000127A00F05C0008005D000800093D005D
:103CDC0080B400AF024B1B681846BD4680BC7047D1
:103CEC003000002080B500AFFFF7F2FF0246054B15
:103CFC005B681B0A03F007030349CB5C22FA03F34E
:103D0C00184680BD00100240E85C000880B500AF8A
:103D1C00FFF7DEFF0246054B5B68DB0A03F0070387
:103D2C000349CB5C22FA03F3184680BD0010024015
:103D3C00E85C000880B483B000AF786039607B68C1
:103D4C000F221A60114B5B6803F003027B685A6008
:103D5C000E4B5B6803F0F0027B689A600B4B5B6860
:103D6C0003F4E0627B68DA60084B5B68DB0803F401
:103D7C00E0627B681A61064B1B6803F007023B6824
:103D8C001A6000BF0C37BD4680BC70470010024063
:103D9C000020024080B485B000AF78600A4B1B68ED
:103DAC000A4AA2FB03235B0A7A6802FB03F3FB605B
:103DBC0000BFFB685A1EFA60002BF9D100BF00BF90
:103DCC001437BD4680BC704730000020D34D6210C4
:103DDC0080B586B000AF786000233B610023FB60A8
:103DEC007B681B6803F00103002B7DD00023FB755F
:103DFC004F4BDB6903F08053002B0DD14C4BDB692F
:103E0C004B4A43F08053D361494BDB6903F0805339
:103E1C00BB60BB680123FB75464B1B6803F48073C6
:103E2C00002B18D1434B1B68424A43F48073136038
:103E3C00FEF75EF8386108E0FEF75AF802463B6977
:103E4C00D31A642B01D903236DE03A4B1B6803F49E
:103E5C008073002BF0D0364B1B6A03F44073FB606D
:103E6C00FB68002B2ED07B685B6803F44073FA6808
:103E7C009A4227D02E4B1B6A23F44073FB602E4BC7
:103E8C0001221A602C4B00221A60294AFB6813622B
:103E9C00FB6803F00103002B14D0FEF729F83861FE
:103EAC000AE0FEF725F802463B69D31A41F2883244
:103EBC00934201D9032336E01D4B1B6A03F0020326
:103ECC00002BEED01A4B1B6A23F440727B685B68A4
:103EDC00174913430B62FB7D012B05D1144BDB6996
:103EEC00134A23F08053D3617B681B6803F00203F1
:103EFC00002B08D00E4B5B6823F440427B689B6818
:103F0C000B4913434B607B681B6803F01003002BB9
:103F1C0008D0074B5B6823F480027B68DB6804499C
:103F2C0013434B60002318461837BD4680BD00BFB5
:103F3C0000100240007000404004424280B582B044
:103F4C0000AF78607B68002B01D1012341E07B68D6
:103F5C0093F83D30DBB2002B06D17B68002283F84E
:103F6C003C207868FDF7DEFD7B68022283F83D205B
:103F7C007B681A687B6804331946104600F010FC05
:103F8C007B68012283F846207B68012283F83E205F
:103F9C007B68012283F83F207B68012283F8402054
:103FAC007B68012283F841207B68012283F8422040
:103FBC007B68012283F843207B68012283F844202C
:103FCC007B68012283F845207B68012283F83D2021
:103FDC00002318460837BD4680BD000080B485B06C
:103FEC0000AF78607B6893F83D30DBB2012B01D0D9
:103FFC0001233AE07B68022283F83D207B681B6832
:10400C00DA687B681B6842F00102DA607B681B6827
:10401C00184A93420ED07B681B68B3F1804F09D0CD
:10402C007B681B68144A934204D07B681B68134A54
:10403C00934211D17B681B689B6803F00703FB60FC
:10404C00FB68062B10D07B681B681A687B681B68A2
:10405C0042F001021A6007E07B681B681A687B68F3
:10406C001B6842F001021A60002318461437BD4643
:10407C0080BC7047002C0140000400400008004048
:10408C0080B582B000AF78607B68002B01D1012332
:10409C0041E07B6893F83D30DBB2002B06D17B68A6
:1040AC00002283F83C207868FDF720FD7B68022213
:1040BC0083F83D207B681A687B68043319461046E8
:1040CC0000F06EFB7B68012283F846207B6801229E
:1040DC0083F83E207B68012283F83F207B68012215
:1040EC0083F840207B68012283F841207B68012201
:1040FC0083F842207B68012283F843207B680122ED
:10410C0083F844207B68012283F845207B680122D8
:10411C0083F83D20002318460837BD4680BD0000BB
:10412C0080B584B000AF786039603B68002B09D152
:10413C007B6893F83E30DBB2012B14BF01230023C4
:10414C00DBB222E03B68042B09D17B6893F83F304B
:10415C00DBB2012B14BF01230023DBB215E03B685B
:10416C00082B09D17B6893F84030DBB2012B14BFCC
:10417C0001230023DBB208E07B6893F84130DBB20B
:10418C00012B14BF01230023DBB2002B01D0012330
:10419C005EE03B68002B04D17B68022283F83E2052
:1041AC0013E03B68042B04D17B68022283F83F2088
:1041BC000BE03B68082B04D17B68022283F840207B
:1041CC0003E07B68022283F841207B681B68012294
:1041DC003968184600F070FD7B681B681E4A9342D4
:1041EC0007D17B681B685A6C7B681B6842F40042E1
:1041FC005A647B681B68184A93420ED07B681B6814
:10420C00B3F1804F09D07B681B68144A934204D0E9
:10421C007B681B68124A934211D17B681B689B68B0
:10422C0003F00703FB60FB68062B10D07B681B6850
:10423C001A687B681B6842F001021A6007E07B6811
:10424C001B681A687B681B6842F001021A60002325
:10425C0018461037BD4680BD002C014000040040BC
:10426C000008004080B584B000AF78607B681B68A4
:10427C00DB68FB607B681B681B69BB60BB6803F079
:10428C000203002B20D0FB6803F00203002B1BD091
:10429C007B681B686FF002021A617B6801221A7737
:1042AC007B681B689B6903F00303002B03D07868C1
:1042BC0000F05AFA05E0786800F04DFA786800F0E2
:1042CC005CFA7B6800221A77BB6803F00403002BAE
:1042DC0020D0FB6803F00403002B1BD07B681B6809
:1042EC006FF004021A617B6802221A777B681B68E4
:1042FC009B6903F44073002B03D0786800F034FA08
:10430C0005E0786800F027FA786800F036FA7B68E8
:10431C0000221A77BB6803F00803002B20D0FB683F
:10432C0003F00803002B1BD07B681B686FF008029E
:10433C001A617B6804221A777B681B68DB6903F0BF
:10434C000303002B03D0786800F00EFA05E07868C0
:10435C0000F001FA786800F010FA7B6800221A77F6
:10436C00BB6803F01003002B20D0FB6803F0100394
:10437C00002B1BD07B681B686FF010021A617B68E6
:10438C0008221A777B681B68DB6903F44073002BE7
:10439C0003D0786800F0E8F905E0786800F0DBF904
:1043AC00786800F0EAF97B6800221A77BB6803F0A2
:1043BC000103002B0CD0FB6803F00103002B07D08A
:1043CC007B681B686FF001021A617868FDF74EFA82
:1043DC00BB6803F08003002B0CD0FB6803F0800358
:1043EC00002B07D07B681B686FF080021A6178681D
:1043FC0000F0EDFCBB6803F04003002B0CD0FB6815
:10440C0003F04003002B07D07B681B686FF0400261
:10441C001A61786800F0BAF9BB6803F02003002B2E
:10442C000CD0FB6803F02003002B07D07B681B68C3
:10443C006FF020021A61786800F0C0FC00BF1037E2
:10444C00BD4680BD80B586B000AFF860B9607A60BB
:10445C000023FB75FB6893F83C30012B01D1022340
:10446C00AEE0FB68012283F83C207B680C2B00F249
:10447C009F8001A252F823F0B9440008BD45000802
:10448C00BD450008BD450008F9440008BD450008BD
:10449C00BD450008BD4500083B450008BD4500086A
:1044AC00BD450008BD4500087B450008FB681B683E
:1044BC00B968184600F0E2F9FB681B689A69FB685A
:1044CC001B6842F008029A61FB681B689A69FB68DA
:1044DC001B6822F004029A61FB681B689969BB682F
:1044EC001A69FB681B680A439A6164E0FB681B68E5
:1044FC00B968184600F028FAFB681B689A69FB68D3
:10450C001B6842F400629A61FB681B689A69FB683D
:10451C001B6822F480629A61FB681B689969BB680E
:10452C001B691A02FB681B680A439A6143E0FB682B
:10453C001B68B968184600F071FAFB681B68DA69E9
:10454C00FB681B6842F00802DA61FB681B68DA69D9
:10455C00FB681B6822F00402DA61FB681B68D969EE
:10456C00BB681A69FB681B680A43DA6123E0FB68C5
:10457C001B68B968184600F0BBFAFB681B68DA695F
:10458C00FB681B6842F40062DA61FB681B68DA693D
:10459C00FB681B6822F48062DA61FB681B68D969CE
:1045AC00BB681B691A02FB681B680A43DA6102E0EC
:1045BC000123FB7500BFFB68002283F83C20FB7DC8
:1045CC0018461837BD4680BD80B584B000AF786002
:1045DC0039600023FB737B6893F83C30012B01D1CD
:1045EC000223B4E07B68012283F83C207B68022222
:1045FC0083F83D207B681B689B68BB60BB6823F01D
:10460C007703BB60BB6823F47F43BB607B681B688C
:10461C00BA689A603B681B68B3F5005F3ED0B3F58F
:10462C00005F00F28780B3F5805F00F08680B3F501
:10463C00805F7FD8702B1AD0702B7BD8602B50D01A
:10464C00602B77D8502B3CD0502B73D8402B58D0A4
:10465C00402B6FD8302B64D0302B6BD8202B60D0F4
:10466C00202B67D8002B5CD0102B5AD062E07B68D3
:10467C0018683B6899683B685A683B68DB6800F0CF
:10468C00FCFA7B681B689B68BB60BB6843F07703D4
:10469C00BB607B681B68BA689A604FE07B681868DF
:1046AC003B6899683B685A683B68DB6800F0E5FA40
:1046BC007B681B689A687B681B6842F480429A602E
:1046CC003CE07B6818683B6859683B68DB681A46B5
:1046DC0000F05CFA7B681B685021184600F0B3FAB6
:1046EC002CE07B6818683B6859683B68DB681A46A5
:1046FC0000F07AFA7B681B686021184600F0A3FA78
:10470C001CE07B6818683B6859683B68DB681A4694
:10471C0000F03CFA7B681B684021184600F093FAC5
:10472C000CE07B681A683B681B681946104600F061
:10473C008AFA03E00123FB7300E000BF7B680122CF
:10474C0083F83D207B68002283F83C20FB7B1846D5
:10475C001037BD4680BD80B483B000AF786000BF19
:10476C000C37BD4680BC704780B483B000AF786016
:10477C0000BF0C37BD4680BC704780B483B000AF1F
:10478C00786000BF0C37BD4680BC704780B483B0E6
:10479C0000AF786000BF0C37BD4680BC704700008E
:1047AC0080B485B000AF786039607B681B68FB60B3
:1047BC007B682F4A93420BD07B68B3F1804F07D0B4
:1047CC007B682C4A934203D07B682B4A934208D1D6
:1047DC00FB6823F07003FB603B685B68FA6813436B
:1047EC00FB607B68224A93420BD07B68B3F1804F0D
:1047FC0007D07B681F4A934203D07B681E4A9342C2
:10480C0008D1FB6823F44073FB603B68DB68FA68F3
:10481C001343FB60FB6823F080023B685B69134326
:10482C00FB607B68FA681A603B689A687B68DA629E
:10483C003B681A687B689A627B680D4A934203D185
:10484C003B681A697B681A637B6801225A617B6832
:10485C001B6903F00103002B05D07B681B6923F057
:10486C0001027B681A6100BF1437BD4680BC7047DB
:10487C00002C0140000400400008004080B487B0C8
:10488C0000AF786039607B681B6A7B617B681B6A50
:10489C0023F001027B681A627B685B683B617B6872
:1048AC009B69FB60FB6823F07003FB60FB6823F0E3
:1048BC000303FB603B681B68FA681343FB607B696E
:1048CC0023F002037B613B689B687A6913437B612D
:1048DC007B681C4A93420CD17B6923F008037B61F3
:1048EC003B68DB687A6913437B617B6923F00403C3
:1048FC007B617B68134A934211D13B6923F480732B
:10490C003B613B6923F400733B613B685B693A692B
:10491C0013433B613B689B693A6913433B617B687A
:10492C003A695A607B68FA689A613B685A687B6896
:10493C005A637B687A691A6200BF1C37BD4680BC1B
:10494C00704700BF002C014080B487B000AF786086
:10495C0039607B681B6A7B617B681B6A23F01002E1
:10496C007B681A627B685B683B617B689B69FB6058
:10497C00FB6823F4E043FB60FB6823F44073FB60AB
:10498C003B681B681B02FA681343FB607B6923F0CE
:10499C0020037B613B689B681B017A6913437B6135
:1049AC007B681D4A93420DD17B6923F080037B61A8
:1049BC003B68DB681B017A6913437B617B6923F0DD
:1049CC0040037B617B68144A934213D13B6923F407
:1049DC0080633B613B6923F400633B613B685B692B
:1049EC009B003A6913433B613B689B699B003A69A6
:1049FC0013433B617B683A695A607B68FA689A6139
:104A0C003B685A687B689A637B687A691A6200BF54
:104A1C001C37BD4680BC7047002C014080B487B069
:104A2C0000AF786039607B681B6A7B617B681B6AAE
:104A3C0023F480727B681A627B685B683B617B68DD
:104A4C00DB69FB60FB6823F07003FB60FB6823F001
:104A5C000303FB603B681B68FA681343FB607B69CC
:104A6C0023F400737B613B689B681B027A691343D8
:104A7C007B617B681D4A93420DD17B6923F40063F3
:104A8C007B613B68DB681B027A6913437B617B6942
:104A9C0023F480637B617B68144A934213D13B6996
:104AAC0023F480533B613B6923F400533B613B6827
:104ABC005B691B013A6913433B613B689B691B01B2
:104ACC003A6913433B617B683A695A607B68FA68C0
:104ADC00DA613B685A687B68DA637B687A691A62C8
:104AEC0000BF1C37BD4680BC704700BF002C014086
:104AFC0080B487B000AF786039607B681B6A3B611B
:104B0C007B681B6A23F480527B681A627B685B6843
:104B1C007B617B68DB69FB60FB6823F4E043FB6033
:104B2C00FB6823F44073FB603B681B681B02FA684C
:104B3C001343FB603B6923F400533B613B689B6868
:104B4C001B033A6913433B617B680F4A934209D1BB
:104B5C007B6923F480437B613B685B699B017A69C9
:104B6C0013437B617B687A695A607B68FA68DA6107
:104B7C003B685A687B681A647B683A691A6200BFA2
:104B8C001C37BD4680BC7047002C014080B487B0F8
:104B9C0000AFF860B9607A60FB681B6A7B61FB68E8
:104BAC001B6A23F00102FB681A62FB689B693B617C
:104BBC003B6923F0F0033B617B681B013A691343AB
:104BCC003B617B6923F00A037B617A69BB68134301
:104BDC007B61FB683A699A61FB687A691A6200BF6B
:104BEC001C37BD4680BC704780B487B000AFF860FE
:104BFC00B9607A60FB681B6A7B61FB681B6A23F0F7
:104C0C001002FB681A62FB689B693B613B6923F4E9
:104C1C0070433B617B681B033A6913433B617B69BF
:104C2C0023F0A0037B61BB681B017A6913437B6192
:104C3C00FB683A699A61FB687A691A6200BF1C3793
:104C4C00BD4680BC704780B485B000AF78603960D9
:104C5C007B689B68FB60FB6823F07003FB603A6821
:104C6C00FB68134343F00703FB607B68FA689A60A8
:104C7C0000BF1437BD4680BC704780B487B000AF0E
:104C8C00F860B9607A603B60FB689B687B617B690C
:104C9C0023F47F437B613B681A027B681A43BB6831
:104CAC0013437A6913437B61FB687A699A6000BF8E
:104CBC001C37BD4680BC704780B487B000AFF8602D
:104CCC00B9607A60BB6803F01F03012202FA03F398
:104CDC007B61FB681A6A7B69DB431A40FB681A62CA
:104CEC00FB681A6ABB6803F01F03796801FA03F3C7
:104CFC001A43FB681A6200BF1C37BD4680BC704764
:104D0C0080B485B000AF786039607B6893F83C3034
:104D1C00012B01D1022346E07B68012283F83C2061
:104D2C007B68022283F83D207B681B685B68FB6014
:104D3C007B681B689B68BB60FB6823F07003FB609F
:104D4C003B681B68FA681343FB607B681B68FA6856
:104D5C005A607B681B68164A93420ED07B681B68AE
:104D6C00B3F1804F09D07B681B68124A934204D080
:104D7C007B681B68104A93420CD1BB6823F08003FC
:104D8C00BB603B685B68BA681343BB607B681B689D
:104D9C00BA689A607B68012283F83D207B68002208
:104DAC0083F83C20002318461437BD4680BC70475E
:104DBC00002C0140000400400008004080B483B087
:104DCC0000AF786000BF0C37BD4680BC704780B424
:104DDC0083B000AF786000BF0C37BD4680BC704715
:104DEC0080B582B000AF78607B68002B01D10123C5
:104DFC0042E07B6893F84130DBB2002B06D17B6834
:104E0C00002283F840207868FCF7FEFE7B682422A1
:104E1C0083F841207B681B68DA687B681B6822F486
:104E2C000052DA60786800F08BFE7B681B681A69A8
:104E3C007B681B6822F490421A617B681B685A6974
:104E4C007B681B6822F02A025A617B681B68DA684F
:104E5C007B681B6842F40052DA607B6800225A645B
:104E6C007B68202283F841207B68202283F8422033
:104E7C007B6800225A63002318460837BD4680BD64
:104E8C0080B58AB002AFF860B9603B601346FB8016
:104E9C0000237B61FB6893F84130DBB2202B75D18A
:104EAC00BB68002B02D0FB88002B01D101236EE0E4
:104EBC00FB6800225A64FB68212283F84120FDF72D
:104ECC0017F87861FB68FA889A84FB68FA88DA84A8
:104EDC00FB689B68B3F5805F08D1FB681B69002BEE
:104EEC0004D10023FB61BB68BB6103E0BB68FB61C1
:104EFC000023BB612EE03B6800937B69002280217C
:104F0C00F86800F0D7FB0346002B05D0FB68202285
:104F1C0083F8412003233AE0FB69002B0BD1BB69DA
:104F2C001B881A46FB681B68C2F308025A60BB69EF
:104F3C000233BB6107E0FB691A78FB681B685A6097
:104F4C00FB690133FB61FB68DB8C9BB2013B9AB2C2
:104F5C00FB68DA84FB68DB8C9BB2002BCBD13B6803
:104F6C0000937B6900224021F86800F0A3FB034604
:104F7C00002B05D0FB68202283F84120032306E098
:104F8C00FB68202283F84120002300E0022318460E
:104F9C002037BD4680BD80B584B000AFF860B960E5
:104FAC001346FB80FB6893F84230DBB2202B12D106
:104FBC00BB68002B02D0FB88002B01D101230BE036
:104FCC00FB6800221A63FB881A46B968F86800F07F
:104FDC00CAFB034600E0022318461037BD4680BDCD
:104FEC0080B59AB000AF78607B681B680C33BB64EB
:104FFC00BB6C53E8003F7B647B6C23F490737B6643
:10500C007B681B680C337A6E7A653B65396D7A6DFB
:10501C0041E80023FB64FB6C002BE5D17B681B682B
:10502C0014337B637B6B53E8003F3B633B6B23F098
:10503C0001033B667B681B6814333A6E3A64FB636E
:10504C00F96B3A6C41E80023BB63BB6B002BE5D1D9
:10505C007B681B6B012B19D17B681B680C333B6283
:10506C003B6A53E8003FFB61FB6923F01003FB65CF
:10507C007B681B680C33FA6DFA62BB62B96AFA6A18
:10508C0041E800237B627B6A002BE5D17B681B68BF
:10509C005B6903F04003002B3FD07B681B68143323
:1050AC00FB60FB6853E8003FBB60BB6823F0400328
:1050BC00BB657B681B681433BA6DBA617B61796917
:1050CC00BA6941E800233B613B69002BE5D17B6861
:1050DC00DB6B002B13D07B68DB6B194A5A637B6844
:1050EC00DB6B1846FDF7D4FC0346002B22D07B6803
:1050FC00DB6B5B6B7A68D26B104698471AE07B6867
:10510C000022DA857B68202283F842207B6800220B
:10511C001A63786800F0BAFA0CE07B680022DA8532
:10512C007B68202283F842207B6800221A6378680F
:10513C0000F0ACFA002318466837BD4680BD00BFAE
:10514C00D158000880B5BAB000AF78607B681B6896
:10515C001B68C7F8E4307B681B68DB68C7F8E03075
:10516C007B681B685B69C7F8DC300023C7F8D83054
:10517C000023C7F8D430D7F8E43003F00F03C7F896
:10518C00D830D7F8D830002B0FD1D7F8E43003F053
:10519C002003002B09D0D7F8E03003F02003002BBC
:1051AC0003D0786800F00DFC5BE2D7F8D830002B08
:1051BC0000F0DE80D7F8DC3003F00103002B06D1C1
:1051CC00D7F8E03003F49073002B00F0D180D7F8BF
:1051DC00E43003F00103002B0BD0D7F8E03003F4DC
:1051EC008073002B05D07B685B6C43F001027B68FD
:1051FC005A64D7F8E43003F00403002B0BD0D7F833
:10520C00DC3003F00103002B05D07B685B6C43F0B2
:10521C0002027B685A64D7F8E43003F00203002BD7
:10522C000BD0D7F8DC3003F00103002B05D07B68E2
:10523C005B6C43F004027B685A64D7F8E43003F0EB
:10524C000803002B11D0D7F8E03003F02003002B1B
:10525C0005D1D7F8DC3003F00103002B05D07B68B7
:10526C005B6C43F008027B685A647B685B6C002BB8
:10527C0000F0F281D7F8E43003F02003002B08D0C3
:10528C00D7F8E03003F02003002B02D0786800F050
:10529C0098FB7B681B685B6903F04003002B14BF11
:1052AC0001230023DBB2C7F8D4307B685B6C03F0BE
:1052BC000803002B03D1D7F8D430002B4FD07868DB
:1052CC0000F08AFA7B681B685B6903F04003002BD3
:1052DC0041D07B681B681433C7F89C30D7F89C30DE
:1052EC0053E8003FC7F89830D7F8983023F04003C4
:1052FC00C7F8D0307B681B681433D7F8D020C7F8B8
:10530C00A820C7F8A430D7F8A410D7F8A82041E8F3
:10531C000023C7F8A030D7F8A030002BD9D17B6878
:10532C00DB6B002B13D07B68DB6B7E4A5A637B688C
:10533C00DB6B1846FDF7ACFB0346002B16D07B68E5
:10534C00DB6B5B6B7A68D26B104698470EE0786823
:10535C0000F093F90AE0786800F08FF906E07868BD
:10536C0000F08BF97B6800225A6475E100BF73E191
:10537C007B681B6B012B40F04F81D7F8E43003F0B6
:10538C001003002B00F04881D7F8E03003F0100335
:10539C00002B00F041810023BB607B681B681B68FD
:1053AC00BB607B681B685B68BB60BB687B681B6809
:1053BC005B6903F04003002B00F0B6807B68DB6B6D
:1053CC001B685B68A7F8BE30B7F8BE30002B00F046
:1053DC0045817B689B8DB7F8BE209A4280F03E8158
:1053EC007B68B7F8BE20DA857B68DB6B9B69202B6A
:1053FC0000F088807B681B680C33C7F88830D7F8BE
:10540C00883053E8003FC7F88430D7F8843023F451
:10541C008073C7F8B8307B681B680C33D7F8B8209A
:10542C00C7F89420C7F89030D7F89010D7F894208C
:10543C0041E80023C7F88C30D7F88C30002BD9D139
:10544C007B681B6814337B677B6F53E8003F3B67BB
:10545C003B6F23F00103C7F8B4307B681B6814332F
:10546C00D7F8B420C7F88020FB67F96FD7F88020F5
:10547C0041E80023BB67BB6F002BE1D17B681B6845
:10548C0014333B663B6E53E8003FFB65FB6D23F02A
:10549C004003C7F8B0307B681B681433D7F8B020D2
:1054AC00FA66BB66B96EFA6E41E800237B667B6ECA
:1054BC00002BE3D17B68202283F842207B680022FA
:1054CC001A637B681B680C33FB64FB6C53E8003F6E
:1054DC00BB64BB6C23F01003C7F8AC307B681B6853
:1054EC000C33D7F8AC20BA657B65796DBA6D41E8A1
:1054FC0000233B653B6D002BE3D17B68DB6B1846CF
:10550C00FDF78AFA7B6802225A637B689A8D7B6866
:10551C00DB8D9BB2D31A9BB21946786800F0BFF8AA
:10552C009CE000BFA95800087B689A8D7B68DB8DD6
:10553C009BB2D31AA7F8CE307B68DB8D9BB2002BC5
:10554C0000F08E80B7F8CE30002B00F089807B689D
:10555C001B680C33BB63BB6B53E8003F7B637B6BFB
:10556C0023F49073C7F8C8307B681B680C33D7F8EA
:10557C00C8207A643B64396C7A6C41E80023FB6385
:10558C00FB6B002BE3D17B681B6814337B627B6A5B
:10559C0053E8003F3B623B6A23F00103C7F8C43079
:1055AC007B681B681433D7F8C4203A63FB62F96A32
:1055BC003A6B41E80023BB62BB6A002BE3D17B68EA
:1055CC00202283F842207B6800221A637B681B68C8
:1055DC000C333B613B6953E8003FFB60FB6823F0F5
:1055EC001003C7F8C0307B681B680C33D7F8C02099
:1055FC00FA61BB61B969FA6941E800237B617B6997
:10560C00002BE3D17B6802225A63B7F8CE301946DF
:10561C00786800F044F823E0D7F8E43003F0800316
:10562C00002B09D0D7F8E03003F08003002B03D017
:10563C00786800F05FF914E0D7F8E43003F0400329
:10564C00002B0ED0D7F8E03003F04003002B08D02D
:10565C00786800F09EF904E000BF02E000BF00E0B3
:10566C0000BFE837BD4680BD80B483B000AF786022
:10567C0000BF0C37BD4680BC704780B483B000AF10
:10568C00786000BF0C37BD4680BC704780B483B0D7
:10569C0000AF786000BF0C37BD4680BC704780B44B
:1056AC0083B000AF78600B467B8000BF0C37BD46E3
:1056BC0080BC704780B586B000AFF860B9603B60C5
:1056CC001346FB713BE03B6AB3F1FF3F37D0FCF76D
:1056DC000FFC02463B68D31A3A6A9A4202D33B6AE1
:1056EC00002B01D103233AE0FB681B68DB6803F055
:1056FC000403002B23D0BB68802B20D0BB68402B2D
:10570C001DD0FB681B681B6803F00803082B16D11F
:10571C0000237B61FB681B681B687B61FB681B6853
:10572C005B687B617B69F86800F056F8FB680822BF
:10573C005A64FB68002283F8402001230FE0FB68C9
:10574C001B681A68BB681340BA689A420CBF0123E5
:10575C000023DBB21A46FB799A42B4D000231846D8
:10576C001837BD4680BD80B485B000AFF860B96015
:10577C001346FB80FB68BA689A62FB68FA889A85C4
:10578C00FB68FA88DA85FB6800225A64FB682222DF
:10579C0083F84220FB681B69002B07D0FB681B6851
:1057AC00DA68FB681B6842F48072DA60FB681B687D
:1057BC005A69FB681B6842F001025A61FB681B685E
:1057CC00DA68FB681B6842F02002DA600023184696
:1057DC001437BD4680BC704780B495B000AF78607C
:1057EC007B681B680C337B637B6B53E8003F3B632C
:1057FC003B6B23F49073FB647B681B680C33FA6C73
:10580C003A64FB63F96B3A6C41E80023BB63BB6BF6
:10581C00002BE5D17B681B6814333B623B6A53E871
:10582C00003FFB61FB6923F00103BB647B681B68D1
:10583C001433BA6CFA62BB62B96AFA6A41E80023A3
:10584C007B627B6A002BE5D17B681B6B012B19D12A
:10585C007B681B680C33FB60FB6853E8003FBB6044
:10586C00BB6823F010037B647B681B680C337A6C79
:10587C00BA617B617969BA6941E800233B613B6994
:10588C00002BE5D17B68202283F842207B68002224
:10589C001A6300BF5437BD4680BC704780B584B0D6
:1058AC0000AF78607B685B6AFB60FB680022DA857E
:1058BC00FB680022DA84F868FFF7DFFE00BF1037C0
:1058CC00BD4680BD80B584B000AF78607B685B6AF4
:1058DC00FB60FB680022DA85FB68202283F84220FB
:1058EC00FB6800221A63F868FFF7D0FE00BF103780
:1058FC00BD4680BD80B485B000AF78607B6893F8FE
:10590C004130DBB2212B3ED17B689B68B3F5805FC5
:10591C0014D17B681B69002B10D17B681B6AFB6060
:10592C00FB681B881A467B681B68C2F308025A6026
:10593C007B681B6A9A1C7B681A6208E07B681B6A8E
:10594C00591C7A6811621A787B681B685A607B68EC
:10595C00DB8C9BB2013B9BB27A681946D184002B3D
:10596C000FD17B681B68DA687B681B6822F08002A9
:10597C00DA607B681B68DA687B681B6842F040025F
:10598C00DA60002300E0022318461437BD4680BCC1
:10599C00704780B582B000AF78607B681B68DA68AE
:1059AC007B681B6822F04002DA607B68202283F857
:1059BC0041207868FFF758FE002318460837BD468B
:1059CC0080BD80B58CB000AF78607B6893F84230B6
:1059DC00DBB2222B40F0AE807B689B68B3F5805F16
:1059EC0017D17B681B69002B13D10023FB627B68EA
:1059FC009B6ABB627B681B685B689BB2C3F3080342
:105A0C009AB2BB6A1A807B689B6A9A1C7B689A6202
:105A1C0026E07B689B6AFB620023BB627B689B6809
:105A2C00B3F5805F07D07B689B68002B0AD17B683D
:105A3C001B69002B06D17B681B685B68DAB2FB6ABA
:105A4C001A7008E07B681B685B68DBB203F07F03AD
:105A5C00DAB2FB6A1A707B689B6A5A1C7B689A6282
:105A6C007B68DB8D9BB2013B9BB27A681946D18572
:105A7C00002B5DD17B681B68DA687B681B6822F0A1
:105A8C002002DA607B681B68DA687B681B6822F48A
:105A9C008072DA607B681B685A697B681B6822F02D
:105AAC0001025A617B68202283F842207B68002225
:105ABC005A637B681B6B012B35D17B6800221A6300
:105ACC007B681B680C337B617B6953E8003F3B614F
